:020000040800F2
:10000000788C012021D40008550C0008570C0008FA
:100010005B0C00085F0C0008630C00080000000087
:10002000000000000000000000000000AD0100081A
:10003000670C00080000000001020008F5CF00086E
:100040003BD400083BD400083BD400083BD4000854
:100050003BD400083BD400083BD400083BD4000844
:100060003BD400083BD400083BD400083BD4000834
:100070003BD400083BD400083BD400083BD4000824
:100080003BD400083BD400083BD400083BD4000814
:100090003BD400083BD400083BD400083BD4000804
:1000A0003BD400083BD400083BD400083BD40008F4
:1000B0003BD400083BD400083BD400083BD40008E4
:1000C0003BD400083BD400083BD400083BD40008D4
:1000D0003BD40008EBD3000867D3000801B7000841
:1000E0003BD400083BD400083BD400083BD40008B4
:1000F0003BD400083BD400083BD400083BD40008A4
:100100003BD40008C56001083BD400083BD400087C
:100110003BD400083BD400083BD40008751D000800
:100120003BD400083BD400083BD400083BD4000873
:100130003BD400083BD400083BD400083BD4000863
:100140003BD400083BD400083BD400083BD4000853
:100150003BD400083BD400083BD400083BD4000843
:100160003BD400083BD400083BD400083BD4000833
:100170003BD400083BD400083BD400083BD4000823
:100180003BD400083BD40008DFF80CD01AF004F888
:1001900000480047770A0008788C012030BF72B60B
:1001A000704762B6704780F3088870472A4B196819
:1001B0000868B0E8F04F80F30988BFF36F8F4FF005
:1001C000000080F3118870470000000006480068B6
:1001D000006880F3088862B661B6BFF34F8FBFF343
:1001E0006F8F00DF00BF00BF08ED00E0DFF80C00FC
:1001F000016841F470010160704700BF88ED00E0C4
:10020000EFF30980BFF36F8F134B1A681EF0100FC6
:1002100008BF20ED108A20E9F04F106008B44FF0BD
:10022000500080F31188BFF34F8FBFF36F8F11F031
:10023000DCFC4FF0000080F3118808BC19680868E6
:10024000B0E8F04F1EF0100F08BFB0EC108A80F33A
:100250000988BFF36F8F704760010020EFF30580BE
:10026000704700004FF4967001F081FB4FF4FA6084
:100270000CF007FF02E0C82001F05CFBFBE708B5CB
:1002800049E04FF0FF31012012F02FFA0446012C13
:100290003ED1FE48006811F0E1FCFD48006890B3D3
:1002A00000235A1E6946FA48006810F047FC00987F
:1002B000082827D2DFE800F004080C10151A1E22C7
:1002C000C82001F037FB1DE0C82001F050FB19E009
:1002D000FA2001F04CFB15E04FF4967001F047FB5B
:1002E00010E04FF4AF7001F042FB0BE0C82001F0CA
:1002F0005CFB07E0C82001F058FB03E0C82001F0D8
:1003000054FB00BF00BFE148006811F02CFD02E083
:100310000A2011F041FBB4E72DE9F04F2DED068BDB
:100320009BB000201390149015901690129011908D
:1003300010900F9000260E900D900025002409903B
:10034000D5E2D4480088401CD2490880D2480088B1
:10035000401CD1490880084600884FF4FA7190FB90
:10036000F1F201FB120000287ED100F069FE824606
:1003700019F099FC41EC1A0B9FEDC80B53EC102BB4
:1003800019F0B0FB41EC190B19F0ABFC814601F000
:1003900016FDBDEEC08A01F018FD00EE100AF8EE61
:1003A000C08A01F01CFD1A9001F034FD199018EE7E
:1003B000900A19F0CEFC41EC190BDDE919018DED25
:1003C000028ACDE903108DED009B4A46B549B64837
:1003D00029F036FCB449B5A00CF0F2F90020AE4982
:1003E000088003200BF0D7F80D900D980BF0BCFAA5
:1003F0000646F01E0D287DD2DFE800F01CADB6D019
:10040000EC7CF77CF57C7C7C07000FAB12AA11A971
:100410000D980BF0B5FD05465DB9BDF83C000090A8
:10042000B1A1BA48DDE911230CF079FF13A80BF054
:1004300053FAF9E0B6480EA90FAA12ABCDE9002194
:10044000029010AA11A90D980BF049FF0546002D46
:100450007DD1002302221946AE48006812F0C6F989
:10046000BDF83C00129900E00DE1CDE90010BDF8A7
:100470004030A9A1A548119A0CF051FF12980AF03A
:1004800033F98046B8F1000F08D109F07BFA8246B3
:100490005246B0A19D480CF042FF56E0B2A1404642
:1004A0000AF028FD08900898B1A1026997480CF05D
:1004B00036FF12980AF018F90790B2A107980AF0CF
:1004C00019FD0690B2A106980AF014FD8246DAF8EA
:1004D00014000590B0A106980AF00CFD8246DAF8E7
:1004E0001400049005981890ADA107980AF002FD39
:1004F000039000E095E0A6A103980AF0FBFC834678
:10050000DBF814000290A4A103980AF0F3FC8346E0
:10051000DBF814000190029817901798012803D176
:10052000A248006811F01FFC5948006860B1002320
:100530000A2218A95648006810F0BAF907461FB9F0
:100540009BA172480CF0EBFE00BF404600E001E0CA
:1005500009F07AFA68E00D980BF0C1FF18B997A17D
:100560006A480CF0DCFE5FE00D980BF0EBFFA0B9E1
:100570009AA166480CF0D3FE13A90A200BF0F1FFF4
:1005800058B99CA161480CF0CAFE149A91B2139814
:100590000AF0EAFF13A80BF09FF945E05C480188D8
:1005A0000D980CF002F8A0B998A158480CF0B7FECD
:1005B00013A90A200CF00BF858B99AA153480CF073
:1005C000AEFE149A91B213980AF0CEFF13A80BF066
:1005D00083F929E00D980CF01EF818B998A14B4842
:1005E0000CF09DFE20E00EE0FFE70D980BF0CFFD34
:1005F00020B999A145480CF092FE03E09DA1434823
:100600000CF08DFE10E00D980BF060FE20B9A0A15B
:100610003E480CF084FE03E0A4A13C480CF07FFEB1
:1006200002E04FF0FF3500BF00BF0AF059FF681C21
:1006300020B91BB0BDEC068BBDE8F08F7D21129870
:1006400019F044F90446A4B1681C90B1641C06E09A
:1006500014F8012B0998411C09910AA90A54207821
:10066000302802DB20783928F2DD0AA819F086F953
:1006700009900F2E01D0032E05D111982BF020F8F0
:1006800012982BF01DF8034800881FE1100000208D
:1006900020000020280000202A0000209A99999923
:1006A0009999B93F0C820508582A00202F73797355
:1006B0002F677672784A694C576B71342F53746D7B
:1006C0003332496E7465726E65742F7468696E6733
:1006D0002F6576656E742F70726F70657274792FE6
:1006E000706F737400000000636D6469643A2025C4
:1006F000732C207265713A2025732C207265715F0E
:100700006C656E3A2025640D0A000000001001405F
:100710003A00002018000020746F7069633A2025A9
:10072000732C20746F7069635F6C656E3A2025646A
:100730002C207061796C6F61643A2025732C2070D5
:1007400061796C6F61645F6C656E3A2025640D0A97
:10075000000000004572726F72206265666F7265FC
:100760003A205B25735D0A00776563686174000059
:100770006A736F6E5F76616C75653A205B25735D99
:100780000A000000646972656374696F6E0000009E
:1007900076616C756500000074696D65000000008D
:1007A000636F6D656261636B000000001C000020D8
:1007B000B6D3C1D0D2D1C2FA000000005469707320
:1007C0003A094D515454205075626C697368205336
:1007D000656E64204F4B0D0A000000005469707371
:1007E0003A09526576205075626C69736852656388
:1007F0000D0A0000546970733A0953656E64205005
:1008000075626C69736852656C0D0A005469707387
:100810003A09526576205075626C69736852656C4E
:100820000D0A0000546970733A0953656E642050D4
:1008300075626C697368436F6D700D0A000000008B
:10084000546970733A09526576205075626C697309
:1008500068436F6D700D0A00546970733A094D5109
:10086000545420537562736372696265204F4B0D57
:100870000A000000546970733A094D5154542053D2
:100880007562736372696265204572720D0A0000B9
:10089000546970733A094D51545420556E53756222
:1008A000736372696265204F4B0D0A00546970735F
:1008B0003A094D51545420556E53756273637269F1
:1008C0006265204572720D0A00000000401C80B273
:1008D000A749088041F28831884205DB0BF054FFBC
:1008E0000020A349088002E0322011F055F828E5E5
:1008F00010B504469F48006800280CDA02E0642026
:1009000001F035F89B4800681428F8DC9948006825
:100910000028F4DB13E09748006800280CDD02E0B3
:10092000642001F042F8934800681428F8DC9148EC
:1009300000680028F4DB02E0C82000F0FBFF0A207A
:1009400011F02AF810BD012023F066FE01E008F046
:10095000A3FFFCE70BE08848006808B9012000E02D
:100960000020854908604FF4FA7011F015F8F2E79D
:1009700004E01FF0F1FC052011F00EF8F9E71CB5BA
:100980000446012108030DF0D5FB042024F04CF8A7
:100990001DF010FB012023F03FFE12F0B6FC0022F8
:1009A000042101200FF089FE744908607448022177
:1009B00000238022CDE9001072A1AFF24B0010F0AD
:1009C0006DFD7348032100238022CDE9001071A141
:1009D000AFF27F0010F062FD714804210023CA01CC
:1009E000CDE900106FA1AFF2A10010F057FD7148E2
:1009F000052100238022CDE900106FA1AFF20F1076
:100A000010F04CFD7048052100238022CDE9001034
:100A10006EA1AFF2FB6010F041FD6F48052100238D
:100A20008022CDE900106DA1AFF2AD7010F036FD5F
:100A30006F48062100238022CDE900106DA1AFF29E
:100A4000DB7010F02BFDC82000F0E0FFC82000F0A4
:100A5000CAFFC82000F0EDFF6548006811F0FEF8FD
:100A60005448006811F0FAF86548006810F064FD19
:100A700012F06EFC1CBD1CB5A8200CF0C3FA4FF49C
:100A8000A0600CF0DFFC4FF4E1300CF036FB4FF4CB
:100A9000E1300CF0D6FB04F0F2FC03F05DFD00F059
:100AA00045FC00F0B0FA00F025FF01F082F901F0FA
:100AB00041FB5448DFED542A9FED542ADFED541AD0
:100AC0009FED531ADFED520A9FED520A01F0FDF936
:100AD0005148DFED4D2A9FED4D2ADFED4D1A9FED78
:100AE0004C1ADFED4B0A9FED4B0A01F0EEF913F0C3
:100AF0004DFC4A490122086849A116F0A9FE49495E
:100B0000087000200FF031FC01200FF02EFC0220B5
:100B10000FF02BFC44A149480CF001FC0AF065FDE4
:100B200003E04FF4FA700CF0ACFA0BF09BFD0028D8
:100B3000F7D101201049091F0860FA200CF0A1FA32
:100B400000203F49C1F8A00201213E480BF0F4FD0E
:100B50002B48012100230A02CDE900103AA1AFF28F
:100B6000E11010F09BFC11F0C2F900201CBD000048
:100B70002800002030000020A482424220000020F3
:100B800004000020746F7563685F7461736B00000C
:100B9000080000206C6564305F7461736B000000B6
:100BA0000C000020656D77696E64656D6F5F746120
:100BB000736B000010000020636F6C6C6563745FE2
:100BC0007461736B00000000140000206E65745F98
:100BD0007461736B00000000180000206D696E6F77
:100BE00072636F6E74726F6C5F7461736B00000080
:100BF0001C0000206261636B5F7461736B00000016
:100C000000000020F80400200C020B3F6F12833A12
:100C1000000000000AD7A33C100500206C7E0120D4
:100C2000303A000038000020204861726477617219
:100C30006520696E6974204F4B0D0A000010014059
:100C4000008042422400002073746172745F7461FA
:100C5000736B0000704700BFFEE700BFFEE700BFF8
:100C6000FEE700BFFEE770470CB500200190009042
:100C70007648006840F480307449086000BF7348CB
:100C8000006800F4003000900198401C019000982A
:100C900018B90198B0F5A04FF1D16C48006800F484
:100CA000003010B10120009001E000200090009879
:100CB000012846D165484030006840F080506349C3
:100CC000403108606248006840F440406049086074
:100CD0005E48083000685D490831086008460068D1
:100CE00040F4004008600846006840F4A0500860E6
:100CF0005848091F0860081F006840F08070091FED
:100D0000086000BF5148006800F000700028F9D06A
:100D100040F20570504908604C480830006820F0E7
:100D200003004A49083108600846006840F00200A4
:100D3000086000BF45480830006800F00C00082833
:100D4000F8D10CBD10B54548006840F47000434927
:100D500008603E48006840F001003C4908600020FF
:100D60003A4908310860394800683D490840374928
:100D700008603C48091D0860081F006820F48020B6
:100D8000091F0860002031490C310860FFF76CFF33
:100D90004FF0006031498039086010BD70B5002007
:100DA0000022022300240221284D08352D6805F079
:100DB0000C0020B1042806D0082834D107E02A4DC1
:100DC0002A4E356033E02A4D284E35602FE01F4D06
:100DD0002D1D2D68C5F380541C4D2D1D2D6805F06B
:100DE0003F0154B1224DB5FBF1F5184E361D366862
:100DF000C6F3881605FB06F209E01B4DB5FBF1F5BD
:100E0000124E361D3668C6F3881605FB06F20F4DE6
:100E10002D1D2D68C5F301456D1C6B00B2FBF3F56C
:100E2000124E356003E0104D104E356000BF00BF1C
:100E3000064D08352D68C5F303150E4E705D0B4D3C
:100E40002D68C540094E356070BD00000038024075
:100E50000070004008544007003C024088ED00E06C
:100E6000FFFFF6FE103000240024F4003C000020B8
:100E700000127A004000002010B59048006820F46D
:100E800040208E4908600846006840F480200860D1
:100E900000208B49086040F2EE200CF0D0F80120D1
:100EA0008849C1F8A4020F200CF0C9F810BD10B594
:100EB00000248248006820F44020804908600846E9
:100EC0000068086004E0601CC4B201200CF0B7F8B0
:100ED0007B488038006808B1C82CF4DBC82C01DBE3
:100EE000012010BD002404E0601CC4B201200CF0FD
:100EF000A6F873488038006808B9F02CF4DBF02CB1
:100F000001DB0120EDE70020EBE710B56B4800683E
:100F100020F44020694908600846006840F48020B9
:100F2000086000206649086002200CF088F8012063
:100F30006449C1F8A4026148006820F440205F4978
:100F400008600846006808600C200CF078F85C48DF
:100F50008038006808B1012400E0002432200CF041
:100F60006EF8204610BD70B50026012508E0FFF799
:100F7000CCFF0446E00140EA6600C6B2681CC5B278
:100F8000082DF4DD304670BD70B504464B4800684E
:100F900020F44020494908600846006840F4802059
:100FA0000860012520E004F0010664106EB1002005
:100FB0004349086002200CF042F801204149C1F881
:100FC000A4023C200CF03BF80CE000203C490860F7
:100FD0003C200CF034F801203A49C1F8A402022068
:100FE0000CF02DF8681CC5B2082DDCDD70BD10B505
:100FF000FFF742FFFFF75BFFCC20FFF7C5FF442060
:10100000FFF7C2FF10BD1CB5012140200DF092F882
:101010004FF40070009001208DF8040000208DF83E
:10102000060002208DF8050001208DF807006946B2
:1010300022480CF0E1FDFFF71FFFFFF738FF1CBD52
:101040002DE9F0412DED048BFFF7D1FFFFF714FFE1
:10105000FFF72DFFCC20FFF797FFBE20FFF794FF8F
:10106000FFF781FF0746FFF77EFF0446072C05DDEB
:10107000E043C4B2F843C7B2002600E0012625468B
:10108000280205B2E81905B2284618F00CFE41EC1A
:10109000190B9FED0D0B53EC102B18F023FD41ECB9
:1010A000180B18F01EFE05B226B12846BDEC048BC5
:1010B000BDE8F081684200B2F8E700000018024085
:1010C000A402434200004342000000000000E43F4D
:1010D0001CB5012102200DF02DF84FF44070009056
:1010E00001208DF8040003208DF8050000208DF804
:1010F000060001208DF80700694689480CF07CFD48
:101100000120884908608849C1F8A4021CBD10B5B7
:101110008348006820F44020814908600846006840
:1011200040F48020086001207E49091D08607E4946
:10113000C1F8A00204200BF082FF00207949091DAC
:10114000086004200BF07BFF00207749C1F8A00263
:1011500010BD10B57248006820F440207049086046
:101160000846006840F48020086000206D4908604F
:101170006D49C1F8A40204200BF061FF0120694908
:1011800008606949C1F8A40204200BF058FF10BDA3
:1011900010B500246248006820F4402060490860CF
:1011A00008460068086001205E49091D08600BF0D0
:1011B00046FF01205C49C1F8A0020BF040FF07E0A8
:1011C000601CC4B2FA2C03DDFFF7C3FF012010BD81
:1011D00054487C3800680028F2D15249086000BFAA
:1011E000F5E710B500204F4908604D48006820F42D
:1011F00040204B4908600846006840F480200860A1
:1012000000204949C1F8A40202200BF018FF012078
:101210004449086002200BF012FF00204249C1F847
:10122000A00210BD10B500203E4908603C4800688F
:1012300020F440203A4908600846006840F48020C5
:10124000086001203849C1F8A40202200BF0F7FE23
:1012500001203449086002200BF0F1FE00203249E1
:10126000C1F8A00210BD70B504462D48006820F4F6
:1012700040202B4908600846006840F48020086040
:10128000002028490860002517E0E0092549091DCC
:1012900008606006040E02200BF0D1FE01202249F6
:1012A000C1F8A00202200BF0CAFE00201D49086010
:1012B00002200BF0C4FE681CC5B2082DE5DB70BD32
:1012C00070B5054600241648006820F440201449F3
:1012D0000860084600680860002616E000201149F2
:1012E000086002200BF0ABFE01200F49C1F8A002FC
:1012F0006006040E0B487C38006808B1601CC4B25C
:1013000001200BF09CFE701CC6B2082EE6DB15B95E
:10131000FFF788FF01E0FFF764FF204670BD000083
:1013200000040240A0824042008040421CB50121DE
:1013300020200CF0FFFE4FF4C060009001208DF8DB
:10134000040000208DF806008DF8070003208DF8BA
:101350000500694604480CF04FFC4FF4C061024898
:101360000CF0C6FC1CBD0000001402407FB5054611
:101370000C46012102200CF026FF0295ADF8044036
:101380000020ADF80600ADF80C0001A91D480DF0D5
:10139000D2F8012211461B480DF06EFD01211948BB
:1013A0000DF052F91D208DF8000001208DF801008C
:1013B00000208DF8020001208DF8030068460CF033
:1013C00046F87FBD10B500210F4A116051605321CE
:1013D0003120FFF7CBFF10BD10B501210B480DF0F8
:1013E00062FD012808D1084802684068521C40F19B
:1013F000000005490A604860012104480DF064FDC1
:1014000010BD00000004004050000020001000400B
:1014100030B58BB005460C46012108460CF0E4FEC1
:1014200001220921FD480CF072FC01220E21FB482B
:101430000CF06DFC4FF48440099002208DF82800D8
:1014400003208DF8290000208DF82A0001208DF856
:101450002B0009A9F1480CF0CFFB0795ADF8184017
:101460000020ADF82000ADF81A0006A9EC480DF0F8
:1014700062F8002003906020ADF804000120ADF870
:1014800006000420ADF808000020ADF81000ADF80B
:101490001200ADF81400ADF8160001A9E0480DF0F7
:1014A000DFF8002003906020ADF804000120ADF8C3
:1014B00006000420ADF808000020ADF81000ADF8DB
:1014C0001200ADF81400ADF8160001A9D4480DF0D3
:1014D000B3F90821D2480DF050FA0821D0480DF098
:1014E0006BFA0121CE480DF091F80121CC480DF0A6
:1014F0009CFC0121CA480DF0A7F80BB030BD30B5F7
:101500008BB005460C46012108460CF06DFE012209
:101510000021C4480CF0FBFB01221146C1480CF02D
:10152000F6FB0320099002208DF8280003208DF897
:10153000290000208DF82A0001208DF82B0009A930
:10154000B8480CF059FB0795ADF818400020ADF8ED
:101550002000ADF81A0006A94FF080400CF0EBFF18
:10156000002003906020ADF804000120ADF80600D3
:101570000420ADF808000020ADF81000ADF812000E
:10158000ADF81400ADF8160001A94FF080400DF041
:1015900067F8002003906020ADF804000120ADF84A
:1015A00006000420ADF808000020ADF81000ADF8EA
:1015B0001200ADF81400ADF8160001A94FF08040FC
:1015C0000DF087F80821C8060DF0D7F90821C806E4
:1015D0000DF0F2F9012188070DF018F801218807B4
:1015E0000DF023FC012188070DF02EF80BB030BD63
:1015F00030B58BB004460D46012102200CF0E3FD0E
:101600000222062187480CF082FB0222072185482E
:101610000CF07DFBC020099002208DF828000320EB
:101620008DF8290000208DF82A0001208DF82B006C
:1016300009A97C480CF0E0FAADF818500020ADF88C
:101640001A000794ADF8200006A977480CF073FF44
:101650006020ADF804000120ADF806000020ADF8D0
:10166000100001A970480CF0FBFF6020ADF80400E9
:101670000120ADF806000020ADF8100001A96A486D
:101680000DF027F8082168480DF077F90821664821
:101690000DF07CF9012164480CF0B8FF012162488B
:1016A0000CF0D2FF0BB030BD30B58BB004460D4608
:1016B000012104200CF087FD02220C215B480CF074
:1016C00026FB02220D2159480CF021FB4FF440501B
:1016D000099002208DF8280003208DF829000020B1
:1016E0008DF82A0001208DF82B0009A94F480CF035
:1016F00083FAADF818500020ADF81A000794ADF841
:10170000200006A94A480CF016FF6020ADF804003E
:101710000120ADF806000020ADF8100001A94448F2
:101720000CF09EFF6020ADF804000120ADF806002B
:101730000020ADF8100001A93D480CF0CAFF0821B7
:101740003B480DF01AF9082139480DF01FF9012125
:1017500037480CF05BFF012135480CF075FF0BB0EA
:1017600030BD30B58BB004460D46012102200CF08F
:101770002AFD032206212F480CF0C9FA0322072173
:101780002C480CF0C4FAC020099002208DF82800E3
:1017900003208DF8290000208DF82A0001208DF803
:1017A0002B0009A923480CF027FAADF818500020A7
:1017B000ADF81A000794ADF8200006A91E480CF0F9
:1017C000BAFE6020ADF804000120ADF8060000204C
:1017D000ADF8100001A918480CF042FF6020ADF8E8
:1017E00004000120ADF806000020ADF8100001A9AA
:1017F00011480CF06EFF08210F480DF0BEF80821CB
:101800000D480DF0C3F801210B480CF0FFFE01213B
:1018100009480CF019FF0BB030BD00000010024069
:10182000000001400000024000040040000C0240A3
:1018300000080040000802400004014030B58BB0B1
:1018400004460D46012108040CF0BDFC03220521CD
:1018500085480CF05CFA0322062183480CF057FA05
:101860006020099002208DF8280003208DF82900BF
:1018700000208DF82A0001208DF82B0009A97A4854
:101880000CF0BAF9ADF818500020ADF81A00079422
:10189000ADF8200006A975480CF04DFE6020ADF8AB
:1018A00004000120ADF806000020ADF8100001A9E9
:1018B0006E480CF0D5FE6020ADF804000120ADF8B4
:1018C00006000020ADF8100001A968480CF001FFE7
:1018D000082166480DF051F8082164480DF056F8CB
:1018E000012162480CF092FE012160480CF0ACFE30
:1018F0000BB030BD10B5532140F2E730FFF788FD43
:10190000532140F2E730FFF7FAFD532140F2E73070
:10191000FFF76EFE532140F2E730FFF7C5FE53217B
:1019200040F2E730FFF71DFF532140F2E730FFF7A9
:1019300085FF10BD10B50446002C00DA6442B4F5F2
:10194000487F01DD4FF44874214649480CF0E1FF1F
:10195000002147480CF0E3FF21464FF080400CF097
:10196000D8FF00214FF080400CF0D5FF10BD10B51E
:101970000446002C00DA6442B4F5167F01DD4FF412
:10198000167421463A480CF0C4FF002138480CF088
:10199000C6FF04F1C8014FF080400CF0BAFF0021EF
:1019A0004FF080400CF0B7FF10BD10B50446002C7E
:1019B00000DA6442B4F5167F01DD4FF4167404F1C9
:1019C000C8012B480CF0A5FF002129480CF0A7FF07
:1019D00021464FF080400CF09CFF00214FF08040EA
:1019E0000CF099FF10BD10B50446002C00DA6442DB
:1019F000B4F5487F01DD4FF4487421461D480CF0D2
:101A000088FF00211B480CF086FF10BD10B504466E
:101A1000002C00DA6442B4F5487F01DD4FF44874CD
:101A2000214615480CF075FF002113480CF073FF98
:101A300010BD10B50446002C00DA6442B4F5487FAE
:101A400001DD4FF4487421460C480CF062FF002180
:101A50000A480CF060FF214604480CF05AFF0021B0
:101A600002480CF058FF10BD001002400040014039
:101A70000000014000080040000400400004014054
:101A800000B59BB0012188050CF054FB0320199090
:101A90008DF8680000208DF86B0019A9DF480CF064
:101AA000ABF8012108020CF0F4FB00214FF4807028
:101AB0000CF0EFFBDA480DF03FFF00200090D94812
:101AC0000190D94802900020039002200490002049
:101AD00005904FF4806006904000079080000890C9
:101AE0004011099040020A9000200B9001200C90B8
:101AF00000200D900E906946C9480DF0BFFF0121EE
:101B0000C7480DF0F5FF012108020CF06DFB012123
:101B100008020CF0BEFB00214FF480700CF0B9FB02
:101B20000DF0D8FC0020159017904FF480301690DF
:101B30000020189015A80DF007FD00200F9001203F
:101B40008DF840008DF84100002011901390022084
:101B50008DF850000FA9B3484C380DF0C6FC032394
:101B600001220B21AF484C380DF045FD0323022222
:101B70000C21AC484C380DF03EFD0121A9484C38F1
:101B80000DF0E4FD0121A7484C380DF0D4FD0121F2
:101B9000A4484C380DF0EFFCA2484C380DF087FDFE
:101BA0001BB000BD10B50021A0480CF00DFD0020B9
:101BB0009F49088001219D480CF046FD10BD10B5DD
:101BC00000219A480CF040FD10BD00B587B00121FE
:101BD00002200CF0AFFA4020029001208DF80C009A
:101BE00003208DF80D0000208DF80E0002A9914809
:101BF0000CF002F840218F480CF07CF88020029015
:101C000002208DF80C0003208DF80D0002A98948F0
:101C10000BF0F2FF802187480CF06CF801212020A6
:101C20000CF0D1FA81480CF0D9FB40F2E730059076
:101C30005320ADF810000020ADF81800ADF81200E8
:101C400004A97A480CF077FC012178480DF028F9B6
:101C50000122114675480DF00FF94FF4A0600BF00A
:101C6000F1FB37208DF8040000208DF805008DF879
:101C7000060001208DF8070001A80BF0E8FB002109
:101C80006A480CF0E1FC07B000BD10B500BF684821
:101C900000884FF47A7100FB01F464480CF098FC62
:101CA0000444002061492431086032200BF0E9F936
:101CB000204610BD10B52DED088B002008EE100A4F
:101CC00000249FED5D0AF0EE408A9FED5B0AB0EEC6
:101CD000409A36E001205949086014200BF0AFF912
:101CE00000205749C1F8980200BF54487C3800686A
:101CF0000028FAD0FFF756FF641C00BF4F487C381D
:101D000000680128FAD0FFF75AFFFFF7BEFF08EE80
:101D1000100AB8EE480A10EE100A18F01AF841EC52
:101D20001B0B9FED480B53EC102B17F04DFF41ECB4
:101D30001A0B18F051F808EE900A38EE890AB0EE46
:101D4000409A052CC6D119EE100A18F002F841ECA1
:101D50001B0B9FED3E0B53EC102B17F035FF41ECA6
:101D60001A0B18F039F808EE900AB0EE680ABDECCC
:101D7000088B10BD10B501212C480DF094F8B8B1B6
:101D800001212A480DF0A0F829480088401C284964
:101D9000088030480068401C2E49086008460068EA
:101DA0002D49884204D32D480068401E2B49086005
:101DB00010BD10B5FFF764FEFFF707FF10BD1A480E
:101DC000D0ED000AB0EE600A70471748D0ED010A66
:101DD000B0EE600AFDEEC00A10EE900A704770B5D2
:101DE0002DED048BFFF766FF10EE105A284617F012
:101DF000B0FF41EC190B9FED1A0B53EC102B17F0B1
:101E000071FE41EC180B17F06CFF04462046BDEC48
:101E1000048B70BD11480068704700000008024044
:101E2000106402404C200140580000200014004083
:101E30006000002000040240000000009882404240
:101E4000008040420000000000004D400000000003
:101E50000000144068000020000E270764000020E6
:101E60009A9999999999A93FF0EE400A90ED000A44
:101E700090ED041A30EE010A80ED010A90ED010A9E
:101E800090ED051A30EE010A90ED011AC1EE001A2C
:101E9000C0ED031A90ED020A90ED031AD0ED021A7C
:101EA00070EEE11A01EE210A80ED020A90ED030ABC
:101EB000B7EE001A31EE400A90ED011A20EE010A49
:101EC00080ED000A90ED020A704780ED000AC0ED37
:101ED000010A80ED021AC0ED031A80ED042AC0ED5C
:101EE000052A70472DE9FC414FF000080026002725
:101EF00000244148008800F40040002879D03F4881
:101F0000006808B9012000E000203C4908603A4818
:101F10000088C0F30D003A49088008460188491C32
:101F200000200EF0E8FA0546364A37A1284627F089
:101F300087FE2C4624E035480088401C3349088041
:101F40002078302811DB207839280EDCB8F1010F19
:101F500005D1207801A98855701CC6B20FE0207801
:101F60000DF80700781CC7B209E02078232801D1BA
:101F70004FF001082078242801D14FF00208641C9A
:101F8000224800881E4909888842D4DB01A817F03E
:101F9000F5FC1F490860684617F0F0FC1C494860D2
:101FA0000846D0ED000AF8EEE00AB0EE600A1948E3
:101FB000FFF75AFFBDEEC00A174880ED000A14482B
:101FC000D0ED010AF8EEE00AB0EE600A1148FFF722
:101FD0004BFFBDEEC00A104880ED010A0020064903
:101FE0000880C821074817F054FC294600200EF04D
:101FF00072FABDE8FC81000028010020A88242425C
:102000006E000020582B0020257300006C0000207B
:1020100074000020F80400203000002010B50446B1
:1020200000BF022141480EF06BF80028F9D021468C
:102030003E480EF01CF800BF01213C480EF060F84D
:102040000028F9D039480EF00FF8C0B210BD00B525
:1020500087B0012108460CF06DF8012108030CF04F
:10206000C3F83820059002208DF8180000208DF864
:102070001A0003208DF8190001208DF81B0005A916
:102080002B480BF0B9FD0522032129480BF03FFE38
:102090000522042126480BF03AFE05221146244869
:1020A0000BF035FE012108030CF0F3F800214FF48A
:1020B00080500CF0EEF80020ADF800004FF4827074
:1020C000ADF802000020ADF804000220ADF80600D3
:1020D0000120ADF808004002ADF80A003820ADF844
:1020E0000C000020ADF80E000720ADF81000694686
:1020F0000E480DF041FE01210C480DF037FFFF2086
:10210000FFF78CFF07B000BD10B5044607480088F4
:102110004FF6C771084005490880084600882043EB
:102120000880012101480DF021FF10BD0030014061
:102130000004024000B599B0012178200BF0FAFFAD
:102140004FF63370179002208DF8600003208DF851
:10215000610000208DF8620001208DF8630017A94E
:1021600099480BF049FD4FF68370179017A99748CF
:102170000BF042FD4FF23F00179017A994480BF067
:102180003BFD40F23F40179017A992480BF034FDF9
:102190000C2200218C480BF0BAFD0C2201218A4848
:1021A0000BF0B5FD0C22042187480BF0B0FD0C228A
:1021B000052185480BF0ABFD0C22082182480BF06D
:1021C000A6FD0C22092180480BF0A1FD0C220A215A
:1021D0007D480BF09CFD0C220B217B480BF097FDFA
:1021E0000C22114678480BF092FD0C220D21764806
:1021F0000BF08DFD0C220E2173480BF088FD0C2294
:102200000F2171480BF083FD0C2200216F480BF069
:102210007EFD0C2201216D480BF079FD0C22072177
:102220006A480BF074FD0C22082168480BF06FFD22
:102230000C22092165480BF06AFD0C220A21634833
:102240000BF065FD0C220B2160480BF060FD0C22A9
:1022500011465E480BF05BFD0C220D215B480BF034
:1022600056FD0C220E2159480BF051FD0C220F2176
:1022700056480BF04CFD0C22002155480BF047FD51
:102280000C22012152480BF042FD0C220221504841
:102290000BF03DFD0C2203214D480BF038FD0C22C4
:1022A00004214B480BF033FD0C22052148480BF06C
:1022B0002EFD0C22114646480BF029FD0C220D2163
:1022C00043480BF024FD0C220E2141480BF01FFD6A
:1022D0000C220F213E480BF01AFD0C2200213D4834
:1022E0000BF015FD0C2201213A480BF010FD0C22D9
:1022F000022138480BF00BFD0C22032135480BF06E
:1023000006FD0C22042133480BF001FD0C220521AF
:1023100030480BF0FCFC0C220A212E480BF0F7FC95
:102320000020019002900920039000200490059065
:102330000690079004200890002009900A90102031
:102340000B9000200C900D900E900F9010904FF479
:1023500080501190002012901390149001A81590B5
:10236000169008A80BF0F9F8012104200BF080F971
:1023700019B000BD10B506E004784FF0D0435C54AE
:10238000491C401C521E002AF6D110BD06E04FF039
:10239000D0435B5C00F8013B491C521E002AF6D179
:1023A000704713B504460122214601A8FFF7E2FF5A
:1023B0001CBD18B50446012221466846FFF7E6FF1A
:1023C0009DF8000018BD0000000C02400010024003
:1023D000001402400018024010B500240020D84923
:1023E00008609020FFF71AFE0020FFF717FE00207C
:1023F000FFF714FE0020FFF711FEFF20FFF70EFE8F
:1024000044EA0024FF20FFF709FE04430120CD49E0
:10241000C1F8B802204610BD1CB5012102200BF006
:1024200089FE012140200BF085FE4FF48040009092
:1024300001208DF8040000208DF8060003208DF89F
:10244000050001208DF807006946BF480BF0D4FB5A
:10245000802000906946BD480BF0CEFB8021BB4830
:102460000BF046FC0120B6490860FFF7F0FD08209C
:10247000FFF74AFEFFF7B0FFB54908801CBD10B555
:1024800000240020AE4908600520FFF7C7FDFF20AB
:10249000FFF7C4FD04460120AA49C1F8B80220464E
:1024A00010BD10B504460020A54908600120FFF7C3
:1024B000B5FD2046FFF7B2FD0120A249C1F8B802E0
:1024C00010BD10B500209E4908600620FFF7A6FD4C
:1024D00001209C49C1F8B80210BD10B500209849F0
:1024E00008600420FFF79AFD01209649C1F8B80260
:1024F00010BD2DE9F04106460C46174600209049D4
:1025000008600320FFF78AFDC4F30740FFF786FD4C
:10251000C4F30720FFF782FDE0B2FFF77FFD00253F
:1025200005E0FF20FFF77AFD7055681C85B2BD42BB
:10253000F7DB012082490860BDE8F08110B500BFDB
:10254000FFF79DFF00F001000028F9D110BD2DE933
:10255000F04106460C461746FFF7B3FF00207849C6
:1025600008600220FFF75AFDC4F30740FFF756FD4D
:10257000C4F30720FFF752FDE0B2FFF74FFD00253F
:1025800004E0705DFFF74AFD681C85B2BD42F8DBD0
:1025900001206B490860FFF7D1FFBDE8F0812DE90C
:1025A000F04107460E461446F0B2C0F58075AC42C5
:1025B00000DC254612E02A4631463846FFF7C7FFC1
:1025C000AC4200D10BE02F442E44601B84B2B4F522
:1025D000807F02DD4FF4807500E02546EBE700BF09
:1025E000BDE8F08110B5044621465AA027F018FB3B
:1025F0002403FFF766FFFFF7A1FF002050490860A2
:102600002020FFF70BFDC4F30740FFF707FDC4F3DD
:102610000720FFF703FDE0B2FFF700FD0120494965
:10262000C1F8B802FFF78AFF10BD2DE9F05F8146BF
:102630000F461646DFF824B14FEA1738C7F30B0AE6
:10264000CAF58054A64200DC344644E04FEA083123
:102650004FF480525846FFF74CFF002508E00AEB84
:1026600005001BF80000FF2800D003E0681C85B2BD
:10267000A542F4DB00BFA54216DA4046FFF7B2FFE1
:10268000002507E019F8050005EB0A010BF8010029
:10269000681C85B2A542F5DB4FEA08314FF4805241
:1026A0005846FFF77CFF04E0224639464846FFF7CC
:1026B00076FFA64200D10FE008F101084FF0000AB2
:1026C000A1442744301B86B2B6F5805F02DD4FF48B
:1026D000805400E03446B9E700BFBDE8F09F10B574
:1026E000FFF7EFFEFFF72AFF002015490860C7201B
:1026F000FFF794FC01201349C1F8B802FFF71EFF51
:1027000010BD10B500200E490860B920FFF786FC07
:1027100001200C49C1F8B80203200AF090FC10BD5A
:1027200010B5002006490860AB20FFF777FC0120B8
:102730000449C1F8B80203200AF081FC10BD000072
:10274000B88240420080404200040240001802402B
:102750007C00002066653A25780D0A0028050020D7
:1027600010B505200AF06BFC10BD1CB5012122201C
:102770000BF0E0FC012000908DF8040003208DF8A0
:10278000050000208DF8060001208DF8070069463D
:1027900084480BF031FA4FF400600090694682489B
:1027A0000BF02AFA0120814908608149C1F8AC0286
:1027B0001CBD10B57C48006820F440007A490860D0
:1027C0000846006840F480000860012079490860EC
:1027D0007949C1F8800214200AF031FC00207549C3
:1027E0000860FFF7BDFF00207349C1F8800210BDEB
:1027F00010B56D48006820F440006B490860084639
:10280000006840F4800008600120684908601420D6
:102810000AF015FC00206649C1F8AC02FFF7A0FFE2
:1028200001206449086010BD10B500245E480068AE
:1028300020F440005C4908600846006808600120F8
:102840005C4908605C49C1F880020AE0601CC4B2BF
:10285000FA2C03DDFFF7CCFF012010BD01200AF0A8
:10286000EEFB5448803800680028EFD14F490860DB
:1028700000BFF2E710B500204C4908604A480068E4
:1028800020F44000484908600846006840F4800091
:102890000860FFF765FF00204549C1F8AC02FFF76B
:1028A0005FFF012041490860FFF75AFF00204249BD
:1028B000C1F8800210BD10B500203C4908603A48BC
:1028C000006820F44000384908600846006840F479
:1028D00080000860FFF744FF01203549C1F8AC02D1
:1028E000FFF73EFF012031490860FFF739FF002064
:1028F0003149C1F8800210BD70B504462A4800680D
:1029000020F44000284908600846006840F4800030
:102910000860002025490860FFF722FF002511E02C
:10292000E009244908606006040E01202249C1F82C
:102930008002FFF715FF00201C490860FFF710FF19
:10294000681CC5B2082DEBDB70BD70B505460024D0
:102950001548006820F440001349086008460068E4
:102960000860002613E00020104908601E200AF0CD
:1029700066FB01201049C1F880026006040E0D4874
:102980008038006808B1601CC4B2701CC6B2082E42
:10299000E9DB15B9FFF78FFF01E0FFF76BFF20467A
:1029A00070BD0000000402400014024080824042DA
:1029B00000804242AC8242420080404210B5FEF7A5
:1029C00087FB10BD70B504460026FEF7A0FB254628
:1029D000E11704EB11610912A02202EB4101C8B218
:1029E000FEF741FCFEF7D4FBE11704EB116109127D
:1029F000A4EB0121C8B2FEF736FCFEF7C9FBFEF7D7
:102A000086FBA120FEF72FFCFEF7C2FB0020FEF79D
:102A100057FC0646FEF79DFB304670BD70B5044678
:102A20000E46FEF774FB2546E11704EB116109120F
:102A3000A02202EB4101C8B2FEF715FCFEF7A8FB8D
:102A4000E11704EB11610912A4EB0121C8B2FEF7F2
:102A50000AFCFEF79DFB3046FEF705FCFEF798FBEF
:102A6000FEF777FB0A200AF00CFB70BD2DE9F04160
:102A700005460E461746002409E0E20026FA02F257
:102A8000D1B22A1990B2FFF7C9FF601CC4B2BC4290
:102A9000F3DBBDE8F0812DE9F04107460C46002646
:102AA000002509E036023919491B491E88B2FFF793
:102AB00089FF0644681CC5B2A542F3DB3046BDE879
:102AC000F08110B5FF20FFF77DFF0446552C01D1A2
:102AD000002010BD5521FF20FFF7A0FFFF20FFF7CA
:102AE00071FF0446552C01D10020F2E70120F0E7E8
:102AF00070B506460C46154608E03046721C96B284
:102B0000FFF760FF04F8010B681E85B2002DF4D1B9
:102B100070BD70B505460C46164606E0217828467D
:102B2000FFF77CFF681C85B2641C301EA6F1010112
:102B30008EB2F3D170BD00002DE9F04104460E467F
:102B400017464FF00008FFF734FEB220FFF7D4FE1F
:102B5000FFF76AFE2012FFF7CFFEFFF765FEE0B237
:102B6000FFF7CAFEFFF760FE00250BE0705DFFF780
:102B7000C3FEFFF759FE8046B8F1000F00D003E016
:102B8000681CC5B2BD42F1DB00BFFFF731FE404615
:102B9000BDE8F0812DE9F04105460F461646FFF7E6
:102BA00008FEB220FFF7A8FEFFF73EFE2812FFF74F
:102BB000A3FEFFF739FEE8B2FFF79EFEFFF734FEF3
:102BC000FFF7F7FDB320FFF797FEFFF72DFE002478
:102BD0000BE0711EA14201D0012100E00021084656
:102BE000FFF7B3FE3855601CC4B2B442F1DBFFF707
:102BF000FFFDBDE8F08138B50446002000900CB11F
:102C000080200090012269464FF45060FFF794FF46
:102C100038BD0EB500200290012106200BF08AFA83
:102C20000220009000208DF8040001208DF807009C
:102C3000694692480AF0E0FF4FF4005000900120EE
:102C40008DF8040003208DF8050000208DF80600A3
:102C500069468B480AF0D0FFFFF787FD00208949BD
:102C6000086064200AF00DFA01208749C1F8B40217
:102C700064200AF006FA0120FFF7BDFF012202A935
:102C80004FF45060FFF786FF9DF808107FA026F0F4
:102C9000C7FF9DF80800802801D100200EBD01204B
:102CA000FCE731B52DED068B82B0002400257A4873
:102CB0000078401C78490870084600780A2190FB8B
:102CC000F1F201FB120018B1734800780A287DDA8E
:102CD000012208A90020FFF75DFF9DF8200000F009
:102CE0001F00002872D09DF8200000F01F0040F067
:102CF000C0006A4981F83400002483E0674890F8F6
:102D000034000121A1400840002879D0644931F8FD
:102D10001400042201A9FFF73DFF604890F8480025
:102D200000F00100C0B39DF807109DF8062001EBEC
:102D3000022016F0B8FF41EC190B9FED5A0B53EC33
:102D4000102B16F0CFFE41EC180B16F0CAFF5349BA
:102D5000203141F824009DF805109DF8042001EB76
:102D6000022016F0A0FF41EC1A0B9FED500B53EC24
:102D7000102B16F0B7FE41EC190B9FED4E0B53ECE8
:102D8000102B16F0ACFE41EC180B16F0AAFF4349CD
:102D90000C3141F8240033E0FFE79DF807109DF85F
:102DA000062001EB022016F07EFF41EC190B9FED8F
:102DB0003D0B53EC102B16F095FE41EC180B16F062
:102DC00090FF36490C3141F8240000E029E09DF8DD
:102DD00005109DF8042001EB022016F064FF41EC81
:102DE000190B9FED320B53EC102B16F07BFE41ECD0
:102DF000180B16F076FF01462848203040F82410C2
:102E0000601CC4B2052CFFF679AF01252348C068C9
:102E100020B92248006A08B90020089000201E4905
:102E200008709DF8200000F01F00D0B91B4890F8F2
:102E3000340000F0800040B1184890F8340020F0D1
:102E40008000164981F834000BE04FF6FF701349FB
:102E5000C8600862084690F8340000F0E00081F88D
:102E600034000D480078F02802DD0A200A49087075
:102E7000284602B0BDEC068B38BD000000040240BD
:102E800000080240B4024142000041424354502035
:102E900049443A25780D0A007E0000208400002075
:102EA000EAB702087B14AE47E17AD43FD881734673
:102EB00094F6D23F00000000000089402DE9F04167
:102EC00004460E4617464FF00008FFF772FC282014
:102ED000FFF712FDFFF7A8FC2012FFF70DFDFFF72B
:102EE000A3FCE0B2FFF708FDFFF79EFC00250BE016
:102EF000705DFFF701FDFFF797FC8046B8F1000F0A
:102F000000D003E0681CC5B2BD42F1DB00BFFFF793
:102F10006FFC4046BDE8F08138B50546002400202E
:102F20008DF800008DF8015000BF09E09DF8000009
:102F3000E049095D0844C0B28DF80000601CC4B2CD
:102F4000B82CF3D39DF80000C043401CC0B28DF8EC
:102F50000000B822D74948F24700FFF7AFFF02222E
:102F6000694648F2FF00FFF7A9FF002038BD2DE9B0
:102F7000F04105460F461646FFF71BFC2820FFF7D9
:102F8000BBFCFFF751FC2812FFF7B6FCFFF74CFC27
:102F9000E8B2FFF7B1FCFFF747FCFFF70AFC292076
:102FA000FFF7AAFCFFF740FC00240BE0711EA142D2
:102FB00001D0012100E000210846FFF7C6FC38558A
:102FC000601CC4B2B442F1DBFFF712FCBDE8F08133
:102FD0001FB5012106200BF0ADF802200090002063
:102FE0008DF804008DF8060003208DF805000120FF
:102FF0008DF807006946B0480AF0FEFD4FF4005016
:10300000009001208DF804006946AC480AF0F4FDF8
:10301000FFF7ABFB0020AA4908600A200AF031F84C
:103020000120A849C1F8B4020A200AF02AF80220B7
:10303000009000208DF804008DF8070069469E4836
:103040000AF0DAFD64200AF01CF8042202A948F212
:103050004010FFF78CFF00208DF80C0002A99AA009
:1030600026F0DEFD9BA102A816F041FC48BB022021
:103070008DF80800012202A948F24000FFF71EFF68
:10308000012202A948F24700FFF771FF9DF80800EE
:10309000602807DA9DF8081090A026F0C1FD0120F5
:1030A000FFF73AFF0A2009F0ECFF00208DF8080036
:1030B000012202A948F24000FFF700FF002004B0FF
:1030C00010BD0120FBE771B583B0002400268848BD
:1030D0000078401C86490870084600780A2190FB59
:1030E000F1F201FB120018B1814800780A286FDA6A
:1030F000012203A948F24E10FFF739FF9DF80C009A
:1031000000F0800028B19DF80C0000F00F000628A8
:1031100004DB9DF80C0000F0200038B10020019085
:10312000012201A948F24E10FFF7C8FE9DF80C00DD
:1031300000F00F0000284BD09DF80C0000F00F00AD
:103140000628D4DA9DF80C0000F00F01FF2088401B
:10315000C0B20190674890F834509DF80400C04315
:10316000C0B240F0C000634981F834000846C1682D
:10317000C161016A0163002441E05E4890F83400B7
:103180000121A140084010B35B4931F8140004222A
:1031900002A9FFF7ECFE574890F8480000F0010044
:1031A000B8B19DF808009DF8091000EB01215148C5
:1031B000203040F824109DF80A009DF80B1000EB19
:1031C0000120C0F548714B480C3040F8241014E041
:1031D00045E09DF808009DF8091000EB01214548E5
:1031E0000C3040F824109DF80A009DF80B1000EBFD
:1031F00001214048203040F82410601CC4B2052C46
:10320000BBDB01263B48C0683C490988884205DC95
:103210003848006A3949498888421DDD9DF80C000C
:1032200000F00F0001280ADD324800693149C8600A
:103230000846406A086200202D4908700FE02D48BA
:10324000C0692C49C8600846006B08628020039062
:10325000084680F8345002E00020254908709DF8A7
:103260000C0000F08F0080281AD1224890F834001A
:1032700000F0800040B11F4890F8340020F080003A
:103280001C4981F834000BE04FF6FF701949C86003
:103290000862084690F8340000F0E00081F834003D
:1032A00013480078F02802DD0A20114908703046E2
:1032B00004B070BDF4B702080004024000080240E8
:1032C000B4024142000041424354502049443A254F
:1032D000730D0A003931343700000000446566611F
:1032E000756C74205665723A25640D0A0000000062
:1032F0007F00002084000020ACB8020828150020C0
:103300002DE9F04105460E4617464FF00008FFF73D
:1033100050FA7020FFF7F0FAFFF786FAE8B2FFF7ED
:10332000EBFAFFF781FA00240BE0305DFFF7E4FAD7
:10333000FFF77AFA8046B8F1000F00D003E0601C76
:10334000C4B2BC42F1DB00BFFFF752FA4046BDE811
:10335000F0812DE9F04106460F461546FFF729FAA0
:103360007020FFF7C9FAFFF75FFAF0B2FFF7C4FA6F
:10337000FFF75AFAFFF71DFA7120FFF7BDFAFFF7C2
:1033800053FA00240BE0691EA14201D0012100E0A4
:1033900000210846FFF7D9FA3855601CC4B2AC4288
:1033A000F1DBFFF725FABDE8F0810EB5012106201B
:1033B0000AF0C0FE0220009000208DF804000120D9
:1033C0008DF80700694693480AF016FC4FF4005048
:1033D000009001208DF8040003208DF805000020E6
:1033E0008DF8060069468C480AF006FCFFF7BDF927
:1033F00000208A490860142009F043FE0120884912
:10340000C1F8B402322009F03CFE00208DF808001B
:10341000012202A9FFF774FF012202A9A420FFF7ED
:103420006FFF16208DF80800012202A98020FFF707
:1034300067FF0C208DF80800012202A98820FFF701
:103440005FFF022202A9A120FFF783FF9DF8080079
:10345000302803D19DF80900032807D09DF8090002
:10346000012803D09DF8090002280AD19DF809001F
:103470009DF8082000EB02216AA026F0D1FB002075
:103480000EBD0120FCE771B581B00024002668481C
:103490000078401C66490870084600780A2190FBB5
:1034A000F1F201FB120018B1614800780A2866DACF
:1034B000012201A90220FFF74CFF9DF8040000F053
:1034C0000F0000287DD09DF8040000F00F000628B2
:1034D00077DA9DF8040000F00F01FF208840C5B2A4
:1034E000E843C0B240F0C000524981F834000024E3
:1034F00059E0504890F834000121A1400840E8B359
:103500004D4931F8140004226946FFF722FF49486B
:1035100090F8480000F00100C0B19DF801009DF84E
:10352000001001F00F0100EB01214248203040F86B
:1035300024109DF803009DF8021001F00F0100EB2C
:1035400001213C480C3040F824101CE09DF801009B
:103550009DF8001001F00F0100EB0120C0F5F071A3
:1035600034480C3040F824109DF803009DF80210F8
:1035700001F00F0100EB01212E4801E011E020E0F5
:10358000203040F824109DF8000000F0F000802862
:1035900007D000212748203040F82410143840F884
:1035A0002410601CC4B2052CA3DB01262148C0688E
:1035B00020B92048006A08B90020019000201C4969
:1035C00008709DF8040000F01F00D0B9194890F869
:1035D000340000F0800040B1164890F8340020F02C
:1035E0008000144981F834000BE04FF6FF70114958
:1035F000C8600862084690F8340000F0E00081F8E6
:1036000034000B480078F02802DD0A2008490870D1
:1036100030467CBD0004024000080240B402414232
:10362000000041424354502049443A25780D0A0095
:103630008000002084000020B6B80208002100BFEE
:1036400014E000F080021AB10122F84B1A6002E087
:103650000022F64B1A604206100E0022F44B1A604C
:103660000122F44BC3F880224A1CD1B20829E8DBBE
:10367000704770B50646002500240020EC4908601C
:10368000ED49C1F8AC02ED4908603046FFF7D6FFBE
:10369000062009F0D4FC0020E649C1F88002012090
:1036A00009F0CDFC0120E249086009F0C8FC0020C7
:1036B000E049C1F8800200BF15E04FF6FF7000EA54
:1036C00044040020DA490860012009F0B8FC012018
:1036D000D849C1F88002D6487838006808B1601C23
:1036E00084B2681CC5B2102DE7DB24110120D34938
:1036F0000860204670BD2DE9FE4380460027002467
:1037000006E04046FFF7B5FF2DF81400601C84B2B8
:10371000052CF6DB002416E0601C85B20FE03DF8B6
:1037200014003DF81510884207DD3DF814603DF89F
:1037300015002DF814002DF81560681C85B2052DB4
:10374000EDDB601C84B2042CE6DB0027012405E0DD
:103750003DF81400384487B2601C84B2042CF7DBB7
:10376000032097FBF0F086B23046BDE8FE832DE9DA
:10377000F04104460D46B2480078FFF7BCFF06460C
:10378000B0480078FFF7B7FF074626602F6001209A
:10379000BDE8F0817FB504460D4602A903A8FFF7F6
:1037A000E6FF064616B9002004B070BD694601A8C0
:1037B000FFF7DDFF06460EB90020F5E703990198F3
:1037C000884204DC019832300399814208DB019978
:1037D0000398884226DC039832300199814221DA2D
:1037E00002990098884204DC0098323002998142A4
:1037F00008DB00990298884214DC02983230009964
:1038000081420FDA019A0399881800EBD0714910B0
:103810002160009A0299881800EBD0714910296044
:103820000120C1E70020BFE770B504460D461646EB
:103830008548068004F10D018AB2193988B22B46F9
:10384000294605F05DFB05F10D0083B2193881B200
:103850002246204605F054FB6A1C91B2621C90B2CD
:1038600001F0F0FA6A1C91B2621E90B201F0EAFA1D
:103870006A1E91B2621C90B201F0E4FA6A1E91B223
:10388000621E90B201F0DEFA06222946204605F0BB
:10389000ADFB70BD70B504460D4616466A480680FD
:1038A0002946204601F0CEFA611C88B2294601F073
:1038B000C9FA681C81B2204601F0C4FA6A1C91B2B0
:1038C000621C90B201F0BEFA70BD10B504465848B3
:1038D0007C380068E0BB2CB15C49A1F11400FFF713
:1038E00059FF23E05949A1F11400FFF753FFE8B154
:1038F0005648203890ED100A90ED0E1AD0ED030ACC
:10390000F8EEE00A01EE200ABDEEC00A80ED030ADF
:1039100090ED110A90ED0F1AD0ED080AF8EEE00ACA
:1039200001EE200ABDEEC00A80ED080A47482038A3
:1039300090F8340000F0800040BBC020434920399B
:1039400081F834000846C168C161016A01631DE065
:10395000FFE73E48203890F8340000F0800050B176
:103960003A48203890F8340020F080003749203958
:1039700081F834000AE0002134482038C161016335
:103980004FF6FF7031492039C86008622F4820384F
:1039900090F8340000F0800010BD10B52B4820389E
:1039A00090ED0E0ADFED2A0A20EE200ABDEEC00AD5
:1039B00010EE104A042221462820FFF757F823482A
:1039C000203890ED0F0ADFED220A20EE200ABDEE2E
:1039D000C00A10EE104A042221462C20FFF746F8B8
:1039E0001A48203890ED100ABCEEC00A10EE101AEA
:1039F00002223020FFF73AF81448203890ED110ADF
:103A0000BCEEC00A10EE101A02223220FFF72EF888
:103A10000E48203890F848103420FEF7FFFF0A24A3
:103A200021463520FEF7FAFF10BD0000AC8242426D
:103A3000808240420080404200804242B4024142C3
:103A4000D0000020D1000020D8000020A4000020D9
:103A500020BCBE4C10B53520FEF7B4FF04460A2C3E
:103A60004ED104212820FFF716F8044600EE104A34
:103A7000B8EEC00A5FED0A0A80EE201AFA4880ED1F
:103A80000E1A04212C20FFF706F8044600EE104A17
:103A9000B8EEC00A5FED120A80EE201AF24880EDFF
:103AA0000F1A02213020FEF7F6FF00EE100AB8EEE2
:103AB000400AED4880ED100A02213220FEF7EBFFAC
:103AC00000EE100AB8EE400AE74880ED110A3420F3
:103AD000FEF778FFE44981F84800084690F848006E
:103AE00030B19020E1490870D020E149087005E02C
:103AF000D020DE4908709020DD490870012010BDFB
:103B00000020FCE72DE9FC5F04460D4617461E46E3
:103B1000DDE90EABDDE90C894FF47840D54908802A
:103B2000D5A01021CDE90010D44843880288A021F7
:103B3000282005F0F2FBD2A01021CDE90010CF48DB
:103B400043880288A021782005F0E7FBCDA0102152
:103B5000CDE90010C94843880288B421282005F027
:103B6000DCFBC9A01021CDE90010C44843880288BD
:103B7000B421782005F0D1FBC4A01021CDE90010BC
:103B8000BE4843880288C821282005F0C6FBC0A093
:103B90001021CDE90010B94843880288C821782057
:103BA00005F0BBFBBBA01021CDE90010B348438852
:103BB0000288DC21282005F0B0FBB7A01021CDE958
:103BC0000010AE4843880288DC21782005F0A5FB70
:103BD000B2A01021CDE90010A84843880288F02146
:103BE000282005F09AFB102004232246A0210090F3
:103BF000402005F0DAFA102004232A46A021009084
:103C0000902005F0D2FA102004233A46B421009007
:103C1000402005F0CAFA102004233246B421009057
:103C2000902005F0C2FA102004234246C8210090DB
:103C3000402005F0BAFA102004234A46C82100901B
:103C4000902005F0B2FA102004235246DC210090A7
:103C5000402005F0AAFA102004235A46DC210090E7
:103C6000902005F0A2FA10200090844801880323D8
:103C70006020109A05F099FABDE8FC9F00B597B056
:103C8000002012900B9012901F217A4801804FF66D
:103C9000FF708449088001F0C0FB4FF478417548FB
:103CA00001804FF6FF7001F0B8FB002071490880D9
:103CB0007D48006810216423A022CDE9001028214E
:103CC000084605F02AFB4FF4784214210846FFF716
:103CD000ABFD0021644880F834109FED740A80ED3C
:103CE0000E0A55E2604840680A9001200A99884708
:103CF0005D4890F8340000F0C000402871D10020E9
:103D00000B90594890F8340020F04000564981F853
:103D100034000846808981B213AA129822F8201034
:103D20005148008C81B2129802EB800041801298B9
:103D3000401CC0B212901298012806D0022815D05B
:103D4000032829D0042810D141E04FF6FF72142136
:103D50000846FFF769FD49480088143880B24FF4DF
:103D6000784214210A90FFF75FFDE0E343480088A2
:103D7000143880B24FF6FF7214210A90FFF754FDF9
:103D80003E484088143880B24FF4784201460A9089
:103D90001420FFF749FDCAE338484088143880B240
:103DA0004FF6FF7201460A901420FFF73DFD33489D
:103DB0004088143880B20A9030480088143880B2A5
:103DC0004FF4784209900A99FFF72EFDAFE3BDF852
:103DD0004C00BDF85010401A0A90002802DB0A98E7
:103DE00002E0A5E30A9840420F90BDF84E1013A8D8
:103DF000C088081A0A90002801DB0A9801E00A9896
:103E000040420E900F9840430F900E9840430E9002
:103E1000DDE90E100844059015F056FFCDE90601C6
:103E20009DED060B26F0A0FE8DED080B9DED080B19
:103E300051EC100B15F074FF80B21190BDF85400D6
:103E4000BDF85810401A0A90002801DB0A9801E0DA
:103E50000A9840420F9013A84189C089081A0A9015
:103E6000002825DB0A9825E084000020D0000020EF
:103E7000D1000020D800002078313A002815002019
:103E800079313A0078323A0079323A0078333A00A0
:103E900079333A0078343A0079343A006661632025
:103EA00069733A00DA000020D4000020000000000E
:103EB0000A9840420E900F9840430F900E9840434E
:103EC0000E90DDE90E100844059015F0FDFECDE9D9
:103ED00006019DED060B26F047FE8DED080B9DEDCE
:103EE000080B51EC100B15F01BFF80B210909DEDEC
:103EF000110AF8EE400A9DED100AB8EE401A80EE65
:103F0000810A8DED0A0A0A9815F023FFCDE90C010C
:103F10009FEDFE0B53EC102B9DED0C0B51EC100B99
:103F200015F02AFF0ED39FEDFB0B53EC102B9DEDEC
:103F30000C0B51EC100B15F037FF03D3119808B19F
:103F40001098E8BB00201290F4484088143880B2E2
:103F50000A90F2480088143880B24FF6FF72099038
:103F60000A99FFF761FC4FF4784214210846FFF7E5
:103F70005BFC9FEDEB0B53EC102B9DED0C0B51EC10
:103F8000100B15F0AFFDCDE908019DED080B51ECCC
:103F9000100B15F0C5FE80B213A90A90C989BDF8AF
:103FA000582013AB5B89CDE90132CDE90310BDF890
:103FB0005400009013A8C0880990BDF8500000E09C
:103FC0000BE00890BDF84E000790BDF84C0006903D
:103FD00007A90EC9FFF796FDB9E2BDF84C00BDF880
:103FE0005410401A0A90002801DB0A9801E00A9850
:103FF00040420F90BDF84E1013A84089081A0A904D
:10400000002801DB0A9801E00A9840420E900F98C0
:1040100040430F900E9840430E90DDE90E10084487
:10402000059015F051FECDE906019DED060B26F039
:104030009BFD8DED080B9DED080B51EC100B15F061
:104040006FFE80B21190BDF85000BDF85810401AB4
:104050000A90002801DB0A9801E00A9840420F907C
:1040600013A8C188C089081A0A90002801DB0A98A1
:1040700001E00A9840420E900F9840430F900E982E
:1040800040430E90DDE90E100844059015F01CFE2B
:10409000CDE906019DED060B26F066FD8DED080BC2
:1040A0009DED080B51EC100B15F03AFE80B210900C
:1040B0009DED110AF8EE400A9DED100AB8EE401A87
:1040C00080EE810A8DED0A0A0A9815F042FECDE9CC
:1040D0000C019FED8E0B53EC102B9DED0C0B51EC56
:1040E000100B15F049FE0AD39FED8A0B53EC102BF1
:1040F0009DED0C0B51EC100B15F056FE49D2002033
:10410000129086484088143880B20A90834800880C
:10411000143880B24FF6FF7209900A99FFF784FBBA
:104120004FF4784214210846FFF77EFB9FED7C0B8D
:1041300053EC102B9DED0C0B51EC100B15F0D2FC39
:10414000CDE908019DED080B51EC100B15F0E8FDD1
:1041500080B201460A9013A8C089BDF8582013AB5D
:104160005B89CDE90132CDE90301BDF8540000902F
:1041700013A8C0880990BDF850000890BDF84E0003
:104180000790BDF84C00069007A90EC9FFF7BAFCCE
:10419000DDE1BDF85000BDF85410401A0A90002827
:1041A00001DB0A9801E00A9840420F9013A8C188E9
:1041B0004089081A0A90002801DB0A9801E00A9851
:1041C00040420E900F9840430F900E9840430E903F
:1041D000DDE90E100844059015F076FDCDE90601E5
:1041E0009DED060B26F0C0FC8DED080B9DED080B38
:1041F00051EC100B15F094FD80B21190BDF84C00FD
:10420000BDF85810401A0A90002801DB0A9801E016
:104210000A9840420F90BDF84E1013A8C089081AA2
:104220000A90002801DB0A9801E00A9840420E90AB
:104230000F9840430F900E9840430E90DDE90E100A
:104240000844059015F040FDCDE906019DED060BF3
:1042500026F08AFC8DED080B9DED080B51EC100B40
:1042600015F05EFD80B210909DED110AF8EE400A47
:104270009DED100AB8EE401A80EE810A8DED0A0A13
:104280000A9815F066FDCDE90C019FED200B53EC6B
:10429000102B9DED0C0B51EC100B15F06DFD0AD39E
:1042A0009FED1C0B53EC102B9DED0C0B51EC100BE8
:1042B00015F07AFD58D20020129018484088143822
:1042C00080B20A9015480088143880B24FF6FF7209
:1042D00009900A99FFF7A8FA4FF47842142108468A
:1042E000FFF7A2FA9FED0E0B53EC102B9DED0C0B7C
:1042F00051EC100B15F0F6FBCDE908019DED080B14
:1043000051EC100B15F00CFD80B20DE06666666690
:104310006666EE3FCDCCCCCCCCCCF03F281500204F
:10432000000000000000594002460A9013A8C0890E
:10433000BDF8581013AB5B89CDE90131CDE903021B
:10434000BDF85400009013A8C0880990BDF8500033
:104350000890BDF84E000790BDF84C00069007A9E4
:104360000EC9FFF7CFFBF2E0BDF85000BDF84C10CE
:10437000401A00EE100AF8EEC00AC048008828383B
:1043800000EE100AB8EEC00A80EE201ABC4880ED9C
:104390000E1ABDF85000BDF84C10084400EE100A8B
:1043A000F8EEC00AB548008800EE100AB8EE400AE0
:1043B000B34890ED0E1A01EE600AF0EE000A80EEAE
:1043C000201A80ED101A13A84089BDF84E10401A2B
:1043D00000EE100AF8EEC00AA8484088283800EE1F
:1043E000100AB8EEC00A80EE201AA54880ED0F1A18
:1043F00013A84089BDF84E10084400EE100AF8EEEC
:10440000C00A9E48408800EE100AB8EE400A9C4858
:1044100090ED0F1A01EE600AF0EE000A80EE201A0D
:1044200080ED111A90ED0E0ABDEEC00A8DED090A5D
:104430000998002801DB099801E009984042022808
:104440000FDC8F4890ED0F0ABDEEC00A8DED0A0A11
:104450000A98002801DB0A9801E00A9840420228E5
:1044600042DD0020129085484088143880B20A90BE
:1044700082480088143880B24FF6FF7209900A997A
:10448000FFF7D2F94FF4784214210846FFF7CCF930
:104490007CA01021CDE90010784840880A90774828
:1044A0000088099002461A2128200A9B04F035FF53
:1044B000734890F8480008B9012000E000207049D6
:1044C00081F84800084690F8480030B190207249C1
:1044D0000870D0207149087005E0D0206E4908703E
:1044E00090206E49087032E01F206D4908804FF619
:1044F000FF7000F092FF6BA01021CDE900105F4823
:1045000040880A905D480088099002466E21232069
:104510000A9B04F002FF4FF47A7008F0B2FDFFF737
:104520003CFA4FF6FF7000F078FF17B000BD00BFF7
:104530000A2008F0A6FD0B98401C80B20B900B9847
:10454000B0F57A7F02DDFFF785FA02E000BFFFF7E2
:10455000C9BB00BF00BFE8E71CB54848808845F2EA
:104560001051884220D1FEF733FD18B95348444911
:10457000486004E0FEF74DFB51484149486040481F
:1045800090F8480040F080003D4981F84800084616
:1045900090F848003949897901F001010843384908
:1045A00081F8480000201CBD3448808841F6631122
:1045B000884218D1FEF7F9FE424831494860084662
:1045C00090F8480040F0800081F84800084690F8D4
:1045D00048002A49897901F001010843284981F8F6
:1045E00048000020DFE70121262009F0A3FD062076
:1045F000009000208DF8040001208DF80700694626
:10460000314809F0F9FA4FF40060009001208DF86C
:10461000040003208DF8050000208DF8060001201D
:104620008DF807006946294809F0E6FA0120009054
:104630006946254809F0E0FA4FF4005000906946B9
:10464000234809F0D9FA0E492031A1F11400FFF7EF
:104650008EF8FEF7B3F9FFF7FDF908B10020A2E7E5
:104660001C48008800F0D9FEFFF708FBFFF795F91A
:10467000FFF7F0F900BF012095E7000028150020A2
:10468000840000205450204E65656420726561648A
:104690006A75737421000000D0000020D100002052
:1046A000D8000020546F7563682053637265656E8F
:1046B0002041646A757374204F4B2100C730000895
:1046C000A32C0008873400080004024000140240B4
:1046D00000080240DA00002001B5BDF8000000909B
:1046E000BDF80000FC49088008BD01B5BDF8000018
:1046F0000090BDF80000F849891C088008BD08B585
:10470000F548801C00880090BDF8000008BD03B586
:10471000BDF80000F0490880BDF804004FF0D84112
:10472000A1F880000CBD01B5BDF80000FFF7D4FF73
:10473000052008F084FCFFF7E2FF08BDE748008988
:10474000E54908807047E449891C0880704730B506
:10475000014601F01F04C1F34513CA0AE50205EB47
:1047600043151544A8B230BD00BF011EA0F10102DF
:10477000D0B2FAD1704730B504460D46D74880888C
:1047800049F24131884205D0D448808845F2103141
:10479000884214D1D1494889FFF79EFF2012FFF7C4
:1047A000A4FFE0B2FFF7A1FFCC498889FFF794FF8F
:1047B0002812FFF79AFFE8B2FFF797FFABE0C74870
:1047C000808846F6040188421DD1C44880790128BA
:1047D00004D1C2480088401E001B84B2BF494889EA
:1047E000FFF77AFF2012FFF780FFE0B2FFF77DFFAF
:1047F000BA498889FFF770FF2812FFF776FFE8B201
:10480000FFF773FF87E0B548808841F6631188425F
:1048100047D1B2488079A8B9B0480088401E001B33
:1048200084B2AE494889FFF757FF0020FFF75DFFCC
:104830000020FFF75AFF2012FFF757FFE0B2FFF703
:1048400054FF16E0A5494889FFF746FF2012FFF7FD
:104850004CFFE0B2FFF749FFA0490988491EC1F3A8
:104860000F20FFF742FF9D490978491EC8B2FFF7A4
:104870003CFF9A498889FFF72FFF2812FFF735FF81
:10488000E8B2FFF732FF95494988491EC1F30F206E
:10489000FFF72BFF91498978491EC8B2FFF725FF22
:1048A00039E08E48808845F21051884220D18B49EA
:1048B0004889FFF711FF2012FFF717FF8749498941
:1048C000491C88B2FFF708FFE0B2FFF70EFF8349EB
:1048D0008889FFF701FF2812FFF707FF7F498989C1
:1048E000491C88B2FFF7F8FEE8B2FFF7FEFE12E0BF
:1048F0007A488079012804D178480088401E001B3E
:1049000084B2764948892146FFF701FF73498889B7
:104910002946FFF7FCFE30BD3EB504460D4600209B
:104920000290019000906D480088A04203DD6B4822
:104930004088A84201DC00203EBD29462046FFF702
:104940001AFF6648808849F24131884211D0634895
:10495000808846F6040188420BD06048808845F282
:104960001031884205D05D48808841F66311884245
:1049700003D12E20FFF7B0FE0DE05848808845F2A5
:104980001051884204D14FF43850FFF7A5FE02E0E1
:104990002220FFF7A1FE5148808849F22031884249
:1049A00002D10220FFF7E0FEFFF7A9FE02904B487C
:1049B000808841F66311884202D1BDF80800BBE748
:1049C0000220FFF7D1FEFFF79AFE0290434880884D
:1049D00049F2413188420BD04048808845F210317D
:1049E000884205D03D48808845F21051884210D158
:1049F0000220FFF7B9FEFFF782FE0090BDF8080025
:104A0000C0B20190BDF804004FF6FF7101EA00202A
:104A100001903248808849F22531884216D02F48CB
:104A2000808844F23551884210D02C488088091F74
:104A300088420BD0294880884BF20551884205D026
:104A4000264880884CF20551884202D1BDF8080002
:104A500072E72248808849F2413188420BD01F48D2
:104A6000808845F21031884205D01C48808845F284
:104A7000105188420DD1BDF80800C012C002BDF827
:104A80000410891240EA4110BDF8001040EAE1200C
:104A900052E7BDF80800FFF75AFE4DE700B50F4892
:104AA000808849F24131884211D00C48808846F60E
:104AB000040188420BD00948808845F210318842B1
:104AC00005D00648808841F66311884208D1292024
:104AD000FFF702FE14E000007E00006C28150020A5
:104AE000FE48808845F21051884204D14FF424508A
:104AF000FFF7F2FD04E040F273110720FFF707FE15
:104B000000BD00B5F548808849F24131884211D096
:104B1000F248808846F6040188420BD0EF4880882E
:104B200045F21031884205D0EC48808841F6631187
:104B3000884203D12820FFF7CFFD0EE0E7488088A8
:104B400045F21051884204D14FF42050FFF7C4FDC4
:104B500003E000210720FFF7DAFD00BDF0B50546B0
:104B600000240027DD48807901280BD1DB488088AC
:104B700046F60401884205D0D848808841F6631182
:104B8000884208D1D5488079F0B9D448808841F668
:104B90006311884218D1082D15D2DFE805F004060C
:104BA000080A0C0E101206250DE007250BE004255F
:104BB00009E0052507E0012505E0002503E00325C0
:104BC00001E0022500BF00BFC448808849F241319E
:104BD000884217D0C148808846F60401884211D027
:104BE000BE48808845F2103188420BD0BB4880888F
:104BF00045F21051884205D0B848808841F66311CB
:104C000088427DD1082D1CD2DFE805F00406090C8E
:104C10000F12151800BF14E044F0800411E044F0B6
:104C200040040EE044F0C0040BE044F0200408E02F
:104C300044F0600405E044F0A00402E044F0E00425
:104C400000BF00BFA548808845F21051884202D1BC
:104C50004FF4585700E03627A048808845F21031BD
:104C600088420DD09D48808845F21051884207D077
:104C70009A48808841F66311884201D044F00804C4
:104C80009648808846F60401884201D144F0020427
:104C900021463846FFF73BFD9048808841F6631176
:104CA00088421DD004F0200068B18C4800888B49F0
:104CB0004988884214DA89480688408887490880EC
:104CC000084646800CE08548008884494988884227
:104CD00006DD82480688408880490880084646806C
:104CE0007E48808845F21051884254D17B494889DA
:104CF000FFF7F2FC0020FFF7F8FC7849498900E053
:104D000078E0491C88B2FFF7E7FC0020FFF7EDFCD4
:104D100072494989891C88B2FFF7DEFC6F4909880E
:104D2000491EC1F30F20FFF7E0FC6C494989C91CFB
:104D300088B2FFF7D1FC69490978491EC8B2FFF76C
:104D4000D4FC66498889FFF7C7FC0020FFF7CDFC3B
:104D500062498989491C88B2FFF7BEFC0020FFF731
:104D6000C4FC5E498989891C88B2FFF7B5FC5B49A0
:104D70004988491EC1F30F20FFF7B7FC57498989BD
:104D8000C91C88B2FFF7A8FC54498978491EC8B2EB
:104D9000FFF7ABFC55E051494889FFF79DFC002027
:104DA000FFF7A3FC0020FFF7A0FC4C490988491E2F
:104DB000C1F30F20FFF799FC48490978491EC8B292
:104DC000FFF793FC45498889FFF786FC0020FFF731
:104DD0008CFC0020FFF789FC40494988491EC1F33B
:104DE0000F20FFF782FC3D498978491EC8B2FFF7C2
:104DF0007CFC26E0082D1CD2DFE805F004070A0D34
:104E00000F12151844F0300413E044F0100410E0C1
:104E100044F020040DE000BF0BE044F0380408E04B
:104E200044F0280405E044F0180402E044F00804CB
:104E300000BF00BF032744F4805421463846FFF7E3
:104E400066FCF0BD30B504460D4629462046FFF706
:104E500092FCFFF773FC224800882249088030BD8D
:104E600070B504460D4616461C48808849F241310B
:104E7000884205D01948808845F21031884214D103
:104E800016494889FFF728FC2012FFF72EFCE0B2F4
:104E9000FFF72BFC11498889FFF71EFC2812FFF74A
:104EA00024FCE8B2FFF721FC93E00C48808845F22F
:104EB0001051884227D109494889FFF70DFC20127B
:104EC000FFF713FC05494989491C88B2FFF704FC28
:104ED000E0B2FFF70AFC0149888905E028150020A7
:104EE000D80000208000006CFFF7F6FB2812FFF7C7
:104EF000FCFBFE498989491C88B2FFF7EDFBE8B24B
:104F0000FFF7F3FB65E0F948808841F663118842BA
:104F100028D1F648807920B9F4480088401E001B4B
:104F200084B2F2494889FFF7D7FB2012FFF7DDFB77
:104F3000E0B2FFF7DAFB2012FFF7D7FBE0B2FFF792
:104F4000D4FBEA498889FFF7C7FB2812FFF7CDFB9E
:104F5000E8B2FFF7CAFB2812FFF7C7FBE8B2FFF77A
:104F6000C4FB36E0E148808846F6040188421DD142
:104F7000DE488079012804D1DC480088401E001BEF
:104F800084B2DA494889FFF7A7FB2012FFF7ADFB8F
:104F9000E0B2FFF7AAFBD5498889FFF79DFB2812ED
:104FA000FFF7A3FBE8B2FFF7A0FB12E0CF48807940
:104FB000012804D1CD480088401E001B84B2CB4993
:104FC00048892146FFF7A3FBC84988892946FFF78E
:104FD0009EFBC6480089C64908804FF0D840A0F81B
:104FE000806070BD70B52DED048B0446BE20FFF7C8
:104FF00073FB0520FFF779FB204614F065FE41ECBA
:10500000190B9FEDBC0B53EC102B14F06BFD41EC16
:10501000180B14F085FE85B22846FFF766FB0120C9
:10502000FFF763FBFF20FFF760FB0020FFF75DFB4E
:105030000020FFF75AFBBDEC048B70BD10B5044691
:10504000002C66D1A9498871F02008804FF4A07027
:1050500048800846808849F2413188420BD0A348F5
:10506000808846F60401884205D0A048808845F231
:10507000103188421AD12C209C4908812A2048816D
:105080002B2088810846808846F60401884205D096
:105090009648808845F21031884206D14FF4A070BE
:1050A000924908804FF4F0704880A1E08F488088D2
:1050B00045F21051884210D14FF430508B4908818D
:1050C0004FF4285048814FF42C5088814FF4F070F1
:1050D00008804FF4487048808AE08448808841F610
:1050E000631188420DD12C20804908812B204881F2
:1050F0002A2088814FF4F07008804FF4487048806F
:1051000076E0222079490881202048812120888169
:105110006EE00120754988714FF4A0700880F0207E
:1051200048800846808849F24131884205D06F485E
:10513000808845F21031884207D12C206B490881C4
:105140002A2048812B2088813FE06848808846F6E5
:105150000401884207D12C20644908812B20488112
:105160002A20888131E06148808845F210518842C8
:1051700010D14FF430505D4908814FF428504881D8
:105180004FF42C5088814FF4487008804FF4F07031
:1051900048801AE05548808841F6631188420DD155
:1051A0002C20524908812A2048812B2088814FF4E5
:1051B000487008804FF4F070488006E022204B4988
:1051C000088121204881202088814848808846F62F
:1051D0000401884205D04548808845F21031884254
:1051E00006D14FF4F070414908804FF4A070488018
:1051F0000020FFF7B3FC10BD2DE9F04F86B0044648
:105200000D469046994604EB0800401E86B205EB19
:105210000900401E87B23548808849F241318842F2
:1052200015D03248808845F2103188420FD02F487F
:10523000808846F60401884209D02C4880790128EC
:1052400026D12A48808841F66311884220D1274917
:105250004889FFF741FA2012FFF747FAE0B2FFF75B
:1052600044FA3012FFF741FAF0B2FFF73EFA1F4955
:105270008889FFF731FA2812FFF737FAE8B2FFF70B
:1052800034FA3812FFF731FAF8B2FFF72EFAC1E01C
:105290001648808841F6631188423DD11348008842
:1052A000A0EB0800001B84B205EB0900401E1FFAAA
:1052B00080F90E494889FFF70FFA2012FFF715FA17
:1052C000E0B2FFF712FA04EB0801491EC1F30F2008
:1052D000FFF70BFA04EB0801491EC8B2FFF705FA05
:1052E00002498889FFF7F8F9281207E028150020FD
:1052F0007E00006C6666666666660440FFF7F5F938
:10530000E8B2FFF7F2F94FEA2920FFF7EEF909F0CA
:10531000FF00FFF7EAF97DE0FE48808845F2105172
:10532000884244D1FB494889FFF7D6F92012FFF79C
:10533000DCF9F8494989491C88B2FFF7CDF9E0B298
:10534000FFF7D3F9F3494989891C88B2FFF7C4F9FB
:105350003012FFF7CAF9EF494989C91C88B2FFF733
:10536000BBF9F0B2FFF7C1F9EA498889FFF7B4F950
:105370002812FFF7BAF9E7498989491C88B2FFF773
:10538000ABF9E8B2FFF7B1F9E2498989891C88B223
:10539000FFF7A2F93812FFF7A8F9DE498989C91C7D
:1053A00088B2FFF799F9F8B2FFF79FF932E0D948D0
:1053B000807901280ED1AA46BB46D6480088801BBA
:1053C000401E80B20190D3480088001B401E80B26E
:1053D000009003E0A246B346019500975020059047
:1053E000512004905220039053200290514605987A
:1053F000FFF78DF959460498FFF789F90199039849
:10540000FFF785F900990298FFF781F929462046B0
:10541000FFF7B1F906B0BDE8F08F70B5044600267D
:10542000BC48058840884543BA48808846F6040150
:10543000884216D1B7488079012812D10020B54999
:1054400088712A2048812B20888100210846FFF797
:1054500092F90120AF4988712B2048812A20888148
:1054600003E000210846FFF786F9FFF767F90026F9
:1054700002E0A9480480761CAE42FAD370BD00B5A4
:10548000A1B00020209001217A2008F053FE0121D4
:10549000084608F087FE4FF400401E9001208DF86A
:1054A0007C0000208DF87E0002208DF87D00012018
:1054B0008DF87F001EA9994808F09EFB4CF23370CE
:1054C0001E9002208DF87C0000208DF87E000320C5
:1054D0008DF87D0001208DF87F001EA9904808F00E
:1054E0008BFB4FF680701E9002208DF87C00002010
:1054F0008DF87E0003208DF87D0001208DF87F005F
:105500001EA9884808F078FB4FF480501E900220B6
:105510008DF87C0000208DF87E0003208DF87D0042
:1055200001208DF87F001EA97F4808F065FB4FF42D
:1055300080501E9002208DF87C0000208DF87E00A7
:1055400003208DF87D0001208DF87F001EA977488B
:1055500008F052FB0C220021714808F0D8FB0C2205
:1055600001216F4808F0D3FB0C2204216C4808F09D
:10557000CEFB0C2205216A4808F0C9FB0C22082149
:10558000674808F0C4FB0C220921654808F0BFFBFE
:105590000C220A21624808F0BAFB0C220E21604856
:1055A00008F0B5FB0C220F215D4808F0B0FB0C227F
:1055B00007215C4808F0ABFB0C220821594808F091
:1055C000A6FB0C220921574808F0A1FB0C220A2156
:1055D000544808F09CFB0C220B21524808F097FB22
:1055E0000C2211464F4808F092FB0C220D214D4829
:1055F00008F08DFB0C220E214A4808F088FB0C2293
:105600000F21484808F083FB0C221146464808F059
:105610007EFB0C221146454808F079FB0F200890CC
:10562000002009903C200A9000200B900C900D90D7
:105630000E90092001900020029008200390002085
:10564000049005900690079006200F90002010907F
:105650001190102012900020139015901490169025
:1056600017904FF480501890002019904FF480400C
:105670001A9000201B9008A81C9001A81D900FA84C
:1056800007F06BFF0121062007F0F2FF322007F040
:10569000F8FC01210020FFF73AF8322007F0F1FC76
:1056A0000020FFF740F81B49888008468088FF28C3
:1056B0000ADB084680884FF6FF71884204D01548FF
:1056C0008088B0F5134F7DD1D320FFF705F8FFF7A1
:1056D00016F810498880FFF712F80E498880FFF706
:1056E0000EF80C498880084680884FF6FF7101EA61
:1056F000002008498880FFF702F806498988084396
:10570000044988800846808849F24131884259D04E
:10571000BF200DE0281500208000006C000402402E
:10572000000C024000100240001402400018024029
:10573000FEF7D2FFFEF7E3FFFE498880FEF7DFFFAA
:10574000FC498880FEF7DBFFFA498880FEF7D7FF27
:10575000F8498880084680884FF6FF7101EA0020EA
:10576000F4498880FEF7CBFFF24989880843F14964
:1057700088800846808846F6040188427AD0D42082
:10578000FEF7AAFFFEF7BBFFEA498880FEF7B7FFE6
:10579000E8498880FEF7B3FFE6498880084680889C
:1057A0004FF6FF7101EA0020E2498880FEF7A7FF6B
:1057B000E04989880843DF4988800846808845F2A7
:1057C000103100E056E0884254D04FF45A40FEF7C2
:1057D00083FFFEF794FFD74988804FF45B40FEF7C4
:1057E0007BFFFEF78CFFD3498880084680884FF600
:1057F000FF7101EA0020CF4988804FF45C40FEF73A
:105800006BFFFEF77CFFCB4989880843C949888034
:1058100008468088B0F5004F02D145F210508880CC
:10582000C448808845F21051884223D0A120FEF759
:1058300053FFFEF764FFBF498880FEF760FFBD4954
:105840008880084680884FF6FF7101EA0020B94938
:105850008880FEF754FFB74989880843B549888096
:105860000846808845F26171884203D141F6631091
:10587000B0498880AF48808849F24131884211D0D0
:10588000AC48808845F2103188420BD0A948808806
:1058900045F21051884205D0A648808841F6631130
:1058A00088421DD1A448006820F00F004FF020412D
:1058B000C1F81C010846D0F81C0120F47060C1F842
:1058C0001C010846D0F81C0140F00300C1F81C017F
:1058D0000846D0F81C0140F40070C1F81C0128E013
:1058E0009448808846F60401884205D09148808813
:1058F0004CF2055188421CD18F48006820F00F00FF
:105900004FF02041C1F81C010846D0F81C0120F4DA
:105910007060C1F81C010846D0F81C0140F00A0074
:10592000C1F81C010846D0F81C0140F44060C1F8E1
:105930001C018048818881A024F072F97D4880880C
:1059400049F2413188427CD1CF20FEF7C5FE0020CC
:10595000FEF7CBFE2098401C2090C120FEF7C5FE2C
:105960003020FEF7C2FEED20FEF7B6FE6420FEF703
:10597000BCFE0320FEF7B9FE1220FEF7B6FE812022
:10598000FEF7B3FEE820FEF7A7FE8520FEF7ADFE8A
:105990001020FEF7AAFE7A20FEF7A7FECB20FEF726
:1059A0009BFE3920FEF7A1FE2C20FEF79EFE002074
:1059B000FEF79BFE3420FEF798FE0220FEF795FED0
:1059C000F720FEF789FE2020FEF78FFEEA20FEF783
:1059D00083FE0020FEF789FE0020FEF786FEC02031
:1059E000FEF77AFE1B20FEF780FEC120FEF774FE54
:1059F0000120FEF77AFEC520FEF76EFE3020FEF78E
:105A000074FE3020FEF771FEC720FEF765FEB7205A
:105A1000FEF76BFE3620FEF75FFE4820FEF765FEC0
:105A20003A20FEF759FE5520FEF75FFEB120FEF743
:105A300053FE0020FEF759FE1A20FEF756FEB62050
:105A400000E0A7E0FEF748FE0A20FEF74EFEA22087
:105A5000FEF74BFEF220FEF73FFE0020FEF745FE6C
:105A60002620FEF739FE0120FEF73FFEE020FEF77C
:105A700033FE0F20FEF739FE2A20FEF736FE2820DF
:105A8000FEF733FE0820FEF730FE0E20FEF72DFE57
:105A90000820FEF72AFE5420FEF727FEA920FEF775
:105AA00024FE4320FEF721FE0A20FEF71EFE0F20F3
:105AB000FEF71BFE0020FEF718FE0020FEF715FE85
:105AC0000020FEF712FE0020FEF70FFEE120FEF799
:105AD00003FE0020FEF709FE1520FEF706FE172044
